:100000000C945D000C9485000C9485000C94850084
:100010000C9485000C9485000C9485000C9485004C
:100020000C9485000C9485000C9485000C944F0171
:100030000C9485000C9485000C9485000C9485002C
:100040000C9405010C9485000C9485000C9485009B
:100050000C9485000C9485000C9485000C9485000C
:100060000C9485000C94850000000008000201003B
:100070000003040700000000000000000000000072
:10008000250028002B0000000000240027002A0083
:10009000040404040404040402020202020203032E
:1000A0000303030301020408102040800102040836
:1000B0001020010204081020270311241FBECFEFD7
:1000C000D8E0DEBFCDBF11E0A0E0B1E0E4EEF6E0A5
:1000D00002C005900D92A030B107D9F721E0A0E051
:1000E000B1E001C01D92A533B207E1F710E0CDE504
:1000F000D0E004C02197FE010E946A03CC35D107ED
:10010000C9F70E9410020C9470030C94000090E058
:10011000FC01EC55FF4F2491FC01E057FF4F849107
:10012000882399F090E0880F991FFC01EA57FF4F50
:10013000A591B491FC01E458FF4F859194918FB73C
:10014000F894EC91E22BEC938FBF089590E0FC01C2
:10015000E859FF4F2491FC01EC55FF4F3491FC010D
:10016000E057FF4FE491EE2309F43CC0222339F11C
:10017000233091F038F42130A9F0223001F584B514
:100180008F7D12C0273091F02830A1F02430B9F4CF
:10019000809180008F7D03C0809180008F77809355
:1001A00080000DC084B58F7784BD09C08091B000F8
:1001B0008F7703C08091B0008F7D8093B000F0E016
:1001C000EE0FFF1FE458FF4FA591B4919FB7F8942D
:1001D000611104C08C913095382302C0EC913E2B04
:1001E0003C939FBF0895892B79F41092800082E0A0
:1001F000809381001092850010928400B19A8091C2
:100200006F00826080936F0008951F920F920FB667
:100210000F9211242F933F938F939F93AF93BF938C
:100220008091310190913201A0913301B09134015C
:100230003091300123E0230F2D3720F40196A11DCA
:10024000B11D05C026E8230F0296A11DB11D209304
:1002500030018093310190933201A0933301B09328
:10026000340180912C0190912D01A0912E01B0912B
:100270002F010196A11DB11D80932C0190932D019A
:10028000A0932E01B0932F01BF91AF919F918F91B9
:100290003F912F910F900FBE0F901F9018951F92B6
:1002A0000F920FB60F9211242F933F934F935F93AA
:1002B0006F937F938F939F93AF93BF93EF93FF932E
:1002C0008091010187FF05C0109285001092840083
:1002D0001BC020910101022E000C330B8091000104
:1002E00090E02817390784F480910101082E000C52
:1002F000990BFC01EE0FFF1F8E0F9F1FFC01EE5F9D
:10030000FE4F808186FD15C0809101018F5F809333
:10031000010120910101022E000C330B809100019C
:1003200090E028173907C4F4809101018C3064F102
:1003300013C080910101082E000C990BFC01EE0FF7
:10034000FF1F8E0F9F1FFC01EE5FFE4F808160E05C
:100350008F730E94A600D8CF809184009091850071
:10036000049680349C4918F480E49CE905C080918F
:100370008400909185000496909389008093880072
:100380008FEF809301013BC0209184003091850064
:1003900080910101082E000C990BFC01EE0FFF1F4C
:1003A0008E0F9F1FFC01EE5FFE4F81819281820FB5
:1003B000931F909389008093880080910101082EFB
:1003C000000C990BFC01EE0FFF1F8E0F9F1FFC010D
:1003D000EE5FFE4F808186FF12C080910101082EE2
:1003E000000C990BFC01EE0FFF1F8E0F9F1FFC01ED
:1003F000EE5FFE4F808161E08F730E94A600FF9147
:10040000EF91BF91AF919F918F917F916F915F918C
:100410004F913F912F910F900FBE0F901F90189505
:10042000789484B5826084BD84B5816084BD85B5CF
:10043000826085BD85B5816085BD80916E008160DB
:1004400080936E0010928100809181008260809381
:100450008100809181008160809381008091800083
:100460008160809380008091B10084608093B100AE
:100470008091B00081608093B00080917A008460A8
:1004800080937A0080917A00826080937A008091D4
:100490007A00816080937A0080917A0080688093EE
:1004A0007A001092C10084E00E94870085E00E94DB
:1004B000870086E00E9487008DE00E94870080917F
:1004C00029018C3008F042C08CE00E9487008091A6
:1004D0002901E82FF0E09F01220F331FE20FF31FE5
:1004E000EE5FFE4F9081907C9C60908310922A0179
:1004F00010922B016CE00E945E0390E02CE0829F42
:10050000B001112440E050E09B01240F351FF90198
:10051000EE0FFF1F2E0F3F1FF901EE5FFE4F2081F0
:1005200026FD07C04F5F5F4F4C30510569F70E94B1
:10053000F300E0912901F0E0CF01880F991FE80F47
:10054000F91FEE5FFE4F80818064808380912601D9
:100550008C3008F042C08BE00E9487008091260119
:10056000E82FF0E09F01220F331FE20FF31FEE5F31
:10057000FE4F9081907C9B60908310922701109297
:1005800028016CE00E945E0390E02CE0829FB001A5
:10059000112440E050E09B01240F351FF901EE0FBC
:1005A000FF1F2E0F3F1FF901EE5FFE4F208126FD3A
:1005B00007C04F5F5F4F4C30510569F70E94F30051
:1005C000E0912601F0E0CF01880F991FE80FF91F95
:1005D000EE5FFE4F808180648083C0E0D0E013E452
:1005E00010937C0080917A00806480937A008091DF
:1005F0007A0086FDFCCF809178002091790090E010
:10060000922B8038910534F461E086E00E94A600C8
:1006100060E008C060E0811592404CF486E00E94E2
:10062000A60061E085E00E94A60060E008C086E0C8
:100630000E94A60060E085E00E94A60061E084E0E0
:100640000E94A600209761F20E940000C9CF80910D
:1006500000018C30A0F491E0980F909300018093FA
:10066000290190E0FC01EE0FFF1F8E0F9F1FFC0180
:10067000EE5FFE4F88EB9BE09283818303C08FEF98
:1006800080932901809100018C30A0F491E0980FB3
:10069000909300018093260190E0FC01EE0FFF1F74
:1006A0008E0F9F1FFC01EE5FFE4F88EB9BE0928355
:1006B000818308958FEF809326010895991B79E037
:1006C00004C0991F961708F0961B881F7A95C9F7E2
:1006D00080950895EE0FFF1F0590F491E02D099489
:0406E000F894FFCFBC
:00000001FF
