:100000000C94DA000C9402010C9402010C9402018D
:100010000C9402010C9402010C9402010C94020154
:100020000C9402010C9402010C9402010C947A04C9
:100030000C9402010C9402010C9402010C94020134
:100040000C94D8030C9402010C9448040C942204E0
:100050000C9402010C9402010C9402010C94020114
:100060000C9402010C94020100407A10F35A00A093
:10007000724E18090010A5D4E80000E87648170071
:1000800000E40B54020000CA9A3B000000E1F505B1
:10009000000080969800000040420F000000A086FB
:1000A00001000000102700000000E803000000002D
:1000B0006400000000000A000000000001000000D1
:1000C00000002C76D888DC674F0823DFC1DFAE59EB
:1000D000E1B1B796E5E3E453C63AE651997696E87E
:1000E000E6C28426EB898C9B62ED407C6FFCEFBC02
:1000F0009C9F40F2BAA56FA5F490055A2AF75C932D
:100100006B6CF9676DC11BFCE0E40D47FEF520E662
:10011000B500D0ED902E0300943577050080841E45
:10012000080000204E0A000000C80C333333330FA0
:10013000986E12831141EF8D2114893BE65516CF3D
:10014000FEE6DB18D1844B381BF77C1D901DA4BB49
:10015000E424203284725E228100C9F124ECA1E5FE
:100160003D27000000080002010000030407000012
:1001700000000000000000000000250028002B0007
:1001800000000000240027002A00040404040404E2
:100190000404020202020202030303030303010236
:1001A0000408102040800102040810200102040805
:1001B00010203B0511241FBECFEFD8E0DEBFCDBF1E
:1001C00011E0A0E0B1E0EAE5F8E102C005900D928F
:1001D000A434B107D9F722E0A4E4B1E001C01D9234
:1001E000AA31B207E1F710E0CAEDD0E004C02197D0
:1001F000FE010E941A0AC93DD107C9F70E94B40541
:100200000C942B0C0C94000090E0FC01E256FE4F85
:100210002491FC01E657FE4F8491882399F090E0E9
:10022000880F991FFC01E058FE4FA591B491FC0185
:10023000EA58FE4F859194918FB7F894EC91E22B98
:10024000EC938FBF089590E0FC01EE59FE4F24918E
:10025000FC01E256FE4F3491FC01E657FE4FE4915B
:10026000EE2309F43CC0222339F1233091F038F415
:100270002130A9F0223001F584B58F7D12C02730DE
:1002800091F02830A1F02430B9F4809180008F7D66
:1002900003C0809180008F77809380000DC084B56B
:1002A0008F7784BD09C08091B0008F7703C08091A3
:1002B000B0008F7D8093B000F0E0EE0FFF1FEA5892
:1002C000FE4FA591B4919FB7F894611104C08C9131
:1002D0003095382302C0EC913E2B3C939FBF08958C
:1002E0008E3008F08E508770806480937C008091FF
:1002F0007A00806480937A0080917A0086FDFCCF3A
:10030000809178002091790090E0922B0895CF920F
:10031000DF92EF92FF920F931F93CF93DF936C01C5
:100320007A018B01C0E0D0E0CE15DF0581F0D80165
:100330006D918D01D601ED91FC910190F081E02D40
:10034000C6010995892B11F02196EECF7E01C701D8
:10035000DF91CF911F910F91FF90EF90DF90CF90A1
:100360000895089580E090E00895FC01538D448D38
:10037000252F30E0842F90E0821B930B541710F050
:10038000CF96089501970895FC01918D828D98175D
:1003900061F0828DDF01A80FB11D5D968C91928D69
:1003A0009F5F9F73928F90E008958FEF9FEF089566
:1003B000FC01918D828D981731F0828DE80FF11D2F
:1003C000858D90E008958FEF9FEF0895FC01918D4A
:1003D000228D892F90E0805C9F4F821B91098F7343
:1003E000992708958EE491E00E94E60121E0892B8F
:1003F00009F420E0822F0895FC01848DDF01A80F0D
:10040000B11DA35ABF4F2C91848D90E001968F733C
:100410009927848FA689B7892C93A089B1898C915B
:10042000837080648C93938D848D981306C00288AA
:10043000F389E02D80818F7D80830895EF92FF9274
:100440000F931F93CF93DF93EC0181E0888F9B8DF7
:100450008C8D981305C0E889F989808185FD26C0B7
:10046000F62E0B8D10E00F5F1F4F0F731127E02E3C
:100470008C8DE8120CC00FB607FCFACFE889F98919
:10048000808185FFF5CFCE010E94FC01F1CF8B8DDD
:10049000FE01E80FF11DE35AFF4FF0829FB7F89479
:1004A0000B8FEA89FB89808180620AC09FB7F8942C
:1004B000EE89FF896083E889F9898081837080648F
:1004C00080839FBF81E090E0DF91CF911F910F91DA
:1004D000FF90EF900895CF93DF93EC01888D8823F0
:1004E000C9F0EA89FB89808185FD05C0A889B989A1
:1004F0008C9186FD0FC00FB607FCF5CF808185FF7C
:10050000F2CFA889B9898C9185FFEDCFCE010E94E9
:10051000FC01E7CFDF91CF91089580E090E0892B37
:1005200029F00E94F20181110C9400000895892B9A
:1005300079F41092800082E080938100109285000F
:1005400010928400B19A80916F00826080936F0056
:100550000895009769F0FC0101900020E9F73197B8
:10056000AF01481B590BBC018EE491E00C9487014C
:1005700080E090E008950F931F93CF93DF93FC01E9
:10058000C481D581209719F4FB01108211C041501C
:1005900051094C175D0708F4EA018B01FC016081E9
:1005A0007181AE01C8010E941C0CC00FD11F1882BE
:1005B000DF91CF911F910F9108950E94070CEF9248
:1005C000FF920F931F93CF93DF93EC017B018A017E
:1005D00088819981009729F02A813B81241735076A
:1005E000F8F4B8016F5F7F4F0E94410B009759F0FC
:1005F000998388831B830A832C813D81232B81F47B
:10060000FC0110820DC088819981009711F00E9431
:10061000B80A198218821D821C821B821A8207C0A6
:100620001D830C83B701888199810E94150CCE012E
:10063000DF91CF911F910F91FF90EF9008956F92EE
:100640007F928F929F92AF92BF92CF92DF92EF9262
:10065000FF920F931F93CF93DF93CDB7DEB7A7978A
:100660000FB6F894DEBF0FBECDBF4A016DB67EB6A1
:10067000FA01E480F580FFEFEF1AFF0A2DB73EB7CD
:100680002E193F090FB6F8943EBF0FBE2DBFEDB730
:10069000FEB731966F011BA21AA21DA21CA21FA2B7
:1006A0001EA28E010F5F1F4F22E044E00E94480708
:1006B000009771F0FC0101900020E9F73197AF013C
:1006C000481B590BBC01CE0182960E94DF020CC070
:1006D0008AA19BA1009711F00E94B80A1BA21AA23E
:1006E0001FA21EA21DA21CA20EA11FA10F5F1F4FC1
:1006F0002DB73EB7201B310B0FB6F8943EBF0FBE8F
:100700002DBF8DB79EB701965C01E114F10429F06D
:10071000A701B601C4010E94BB020115110531F009
:10072000A801B501CE0182960E94BB02C6010E94BB
:10073000A9026AE38EE491E00E941E02C5010E94B4
:10074000A90288E191E00E94A9028AA19BA10E94CE
:10075000B80A0FB6F8947EBE0FBE6DBEA7960FB650
:10076000F894DEBF0FBECDBFDF91CF911F910F91E7
:10077000FF90EF90DF90CF90BF90AF909F908F90C1
:100780007F906F900895FC01118210821382128273
:10079000158214826115710551F0FB010190002052
:1007A000E9F73197AF01461B570B0C94DF02089510
:1007B0001F920F920FB60F9211242F933F938F9396
:1007C0009F93AF93BF9380914A0190914B01A09169
:1007D0004C01B0914D013091490123E0230F2D3799
:1007E00020F40196A11DB11D05C026E8230F029635
:1007F000A11DB11D2093490180934A0190934B01A3
:10080000A0934C01B0934D01809145019091460118
:10081000A0914701B09148010196A11DB11D80939F
:10082000450190934601A0934701B0934801BF91C1
:10083000AF919F918F913F912F910F900FBE0F908D
:100840001F9018951F920F920FB60F9211242F939D
:100850003F934F935F936F937F938F939F93AF9348
:10086000BF93EF93FF938EE491E00E94FC01FF9110
:10087000EF91BF91AF919F918F917F916F915F9118
:100880004F913F912F910F900FBE0F901F90189591
:100890001F920F920FB60F9211242F938F939F9355
:1008A000EF93FF93E0915E01F0915F018081E09111
:1008B0006401F091650182FD12C090818091670111
:1008C0008F5F8F7320916801821751F0E09167016B
:1008D000F0E0E25BFE4F958F8093670101C080815D
:1008E000FF91EF919F918F912F910F900FBE0F90DD
:1008F0001F9018951F920F920FB60F9211242F93ED
:100900003F934F935F936F937F938F939F93AF9397
:10091000BF93EF93FF938091440187FF05C010922E
:100920008500109284001BC020914401022E000C0F
:10093000330B80910F0290E02817390784F48091DF
:100940004401082E000C990BFC01EE0FFF1F8E0FC7
:100950009F1FFC01E551FE4F808186FD15C08091EF
:1009600044018F5F8093440120914401022E000CCA
:10097000330B80910F0290E028173907C4F480915F
:1009800044018C3064F113C080914401082E000CA6
:10099000990BFC01EE0FFF1F8E0F9F1FFC01E5510D
:1009A000FE4F808160E08F730E942301D8CF809139
:1009B000840090918500049680349C4918F480E46A
:1009C0009CE905C0809184009091850004969093E5
:1009D0008900809388008FEF809344013BC0209171
:1009E00084003091850080914401082E000C990B01
:1009F000FC01EE0FFF1F8E0F9F1FFC01E551FE4F04
:100A000081819281820F931F909389008093880047
:100A100080914401082E000C990BFC01EE0FFF1F82
:100A20008E0F9F1FFC01E551FE4F808186FF12C093
:100A300080914401082E000C990BFC01EE0FFF1F62
:100A40008E0F9F1FFC01E551FE4F808161E08F7387
:100A50000E942301FF91EF91BF91AF919F918F91E0
:100A60007F916F915F914F913F912F910F900FBEAA
:100A70000F901F901895109251011092500188EE1E
:100A800093E0A0E0B0E08093520190935301A093D3
:100A90005401B09355018AE091E090934F01809307
:100AA0004E0185EC90E090935B0180935A0184ECB9
:100AB00090E090935D0180935C0180EC90E09093D6
:100AC0005F0180935E0181EC90E0909361018093DF
:100AD000600182EC90E0909363018093620186EC68
:100AE00090E09093650180936401109267011092E9
:100AF00068011092690110926A0180910F028C3096
:100B0000A0F491E0980F90930F028093130290E06D
:100B1000FC01EE0FFF1F8E0F9F1FFC01E551FE4FE2
:100B200088EB9BE09283818303C08FEF8093130255
:100B300080910F028C30A0F491E0980F90930F02F7
:100B40008093100290E0FC01EE0FFF1F8E0F9F1F9D
:100B5000FC01E551FE4F88EB9BE092838183089571
:100B60008FEF809310020895CF93DF9300D000D0D1
:100B700000D0CDB7DEB7789484B5826084BD84B5EB
:100B8000816084BD85B5826085BD85B5816085BD88
:100B900080916E00816080936E0010928100809140
:100BA00081008260809381008091810081608093C8
:100BB0008100809180008160809380008091B100ED
:100BC00084608093B1008091B00081608093B00018
:100BD00080917A00846080937A0080917A008260AC
:100BE00080937A0080917A00816080937A0080916E
:100BF0007A00806880937A001092C100E0915E01D3
:100C0000F0915F0182E08083E0915A01F0915B01F5
:100C10001082E0915C01F0915D018FEC8083109275
:100C20006601E0916201F091630186E08083E091CA
:100C30006001F0916101808180618083E0916001B9
:100C4000F0916101808188608083E0916001F09182
:100C50006101808180688083E0916001F091610191
:100C600080818F7D808384E00E94040185E00E9462
:100C7000040186E00E9404018DE00E94040180913D
:100C800013028C3008F042C08CE00E940401809175
:100C90001302E82FF0E09F01220F331FE20FF31F32
:100CA000E551FE4F9081907C9C60908310921402DD
:100CB000109215026CE00E940E0A90E02CE0829FD8
:100CC000B001112440E050E09B01240F351FF901D1
:100CD000EE0FFF1F2E0F3F1FF901E551FE4F208140
:100CE00026FD07C04F5F5F4F4C30510569F70E94EA
:100CF0009702E0911302F0E0CF01880F991FE80FEF
:100D0000F91FE551FE4F808180648083809110023D
:100D10008C3008F042C08BE00E94040180911002E8
:100D2000E82FF0E09F01220F331FE20FF31FE55180
:100D3000FE4F9081907C9B609083109211021092E4
:100D400012026CE00E940E0A90E02CE0829FB0013B
:100D5000112440E050E09B01240F351FF901EE0FF4
:100D6000FF1F2E0F3F1FF901E551FE4F208126FD89
:100D700007C04F5F5F4F4C30510569F70E949702E3
:100D8000E0911002F0E0CF01880F991FE80FF91FE2
:100D9000E551FE4F8081806480836AE171E0CE017D
:100DA00001960E94C30383E00E947001BC01990F69
:100DB000880B990B0E949C09AE014F5F5F4F0E9408
:100DC0001F0389819A810E94B80A61E271E0CE0115
:100DD00001960E94C30384E00E947001BC01990F38
:100DE000880B990B0E949C09AE014F5F5F4F0E94D8
:100DF0001F0389819A810E94B80A65E271E0CE01E1
:100E000001960E94C30385E00E947001BC01990F06
:100E1000880B990B0E949C09AE014F5F5F4F0E94A7
:100E20001F0389819A810E94B80A61E371E0CE01B3
:100E300001960E94C30380E00E947001BC01990FDB
:100E4000880B990B0E949C09AE014F5F5F4F0E9477
:100E50001F0389819A810E94B80A6AE371E0CE017A
:100E600001960E94C30382E00E947001BC01990FA9
:100E7000880B990B0E949C09AE014F5F5F4F0E9447
:100E80001F0389819A810E94B80A0E948D0285CF32
:100E9000EF920F931F93CF93DF93E80147FD02C0BA
:100EA00034E001C034E1042E000C550B57FF03C0A1
:100EB000519541955109E32E022F242FAE010E9436
:100EC0006807CE01DF91CF911F910F91EF900895A8
:100ED000A9E0B0E0EEE6F7E00C94DD096A01122F1C
:100EE000B02E2BE3201720F0FF24F394F00E02C065
:100EF0002CE3F22E0F2D27E0AE014F5F5F4F0E94D3
:100F0000C208BC014981842F8970813031F0E1FC35
:100F100006C0E0FE06C090E205C09DE203C09BE271
:100F200001C090E05E2D507143FF3CC0911102C0A2
:100F300083E001C084E0811718F4212F281B01C031
:100F400020E051110BC0F601822F30E2882319F006
:100F500031938150FBCFC20ED11C20E0992329F0A0
:100F6000D6019C93F60131966F01C6010396E2FE0D
:100F70000AC03EE4D6013C9341E411964C9311978C
:100F800012963C9306C03EE6F601308341E641836B
:100F90003283FC01322F40E2332309F442C04193F3
:100FA0003150FACF42FF44C0911102C083E001C02A
:100FB00084E0811718F4212F281B01C020E0511173
:100FC0000BC0F601822F30E2882319F03193815053
:100FD000FBCFC20ED11C20E0992329F0D6019C93AF
:100FE000F60131966F01C6010396E2FE0BC039E4AB
:100FF000D6013C933EE411963C93119736E4129649
:101000003C9307C039E6F60130833EE6318336E68D
:101010003283FC01322F40E2332319F041933150E7
:10102000FBCFFC01E20FF11D10828EEF9FEFA6C0F7
:1010300021E030E0911102C020E030E016161706E2
:101040001CF4FB01319602C0E1E0F0E02E0F3F1FDF
:10105000BB2021F0EB2DF0E0319602C0E0E0F0E0A3
:101060002E0F3F1FE12FF0E02E173F071CF4121B3D
:10107000212F01C020E08E2D887159F4F601822FB6
:1010800030E2882319F031938150FBCFC20ED11C7E
:1010900020E0992329F0D6019C93F60131966F0147
:1010A00051110BC0F601822F90E3882319F0919320
:1010B0008150FBCFC20ED11C20E00F2D060F9A816C
:1010C000342F307144FF03C0913309F401501016DE
:1010D00024F4093018F008E001C001E0AB0177FF0B
:1010E00002C040E050E0FB01E41BF50BA1E0B0E0E2
:1010F000AC0FBD1FEA0FFB1F8EE2A82E4B01801A1A
:1011000091080B2D10E01195019511094F3FBFEF8C
:101110005B0721F4D601AC9211966D016417750737
:101120002CF08416950614F4818101C080E34150AF
:1011300051093196D60111967D014017510724F0CF
:10114000D6018C936701E2CF6417750739F49633A3
:1011500020F4953319F4311101C081E3F601808345
:10116000F701822F90E2882319F091938150FBCFF1
:10117000F701E20FF11D108280E090E02996ECE08B
:101180000C94F909283008F027E03327DA01990F89
:10119000311D87FD916000966105710539F432605B
:1011A0002E5F3D9330E32A95E1F708959F3F30F09D
:1011B00080387105610509F03C5F3C5F3D939130DB
:1011C00008F08068911DDF93CF931F930F93FF92D8
:1011D000EF92192F987F9695E92F96959695E90F9E
:1011E000FF27EE53FF4F99273327EE24FF24A70153
:1011F000E70105900894079428F4360FE71EF81EBF
:10120000491F511D660F771F881F991F0694A1F76C
:101210000590079428F4E70EF81E491F561FC11DBC
:10122000770F881F991F661F0694A1F705900794F2
:1012300028F4F80E491F561FC71FD11D880F991F8C
:10124000661F771F0694A1F70590079420F4490FB5
:10125000561FC71FD81F990F661F771F881F069438
:10126000A9F784911095177041F0D695C7955795B9
:101270004795F794E7941A95C1F7E8E6F0E068948B
:101280001590159135916591959105907FE2739533
:10129000E118F10A430B560BC90BD009C0F7E10C5A
:1012A000F11E431F561FC91FD01D7EF4703311F469
:1012B0008A95E6CFE894015030F0080F0AF4002731
:1012C000021708F4202F2395022F7A3328F079E3B0
:1012D0007D932A95E9F710C07D932A9589F60694A7
:1012E00097956795379517951794E118F10A430B71
:1012F000560BC90BD00998F023957E9173957A33DC
:1013000008F070E37C932013B8F77E9170617D93B1
:1013100030F0839571E37D9370E32A95E1F7112412
:10132000EF90FF900F911F91CF91DF91992787FD4B
:1013300090950895E89409C097FB3EF490958095A8
:10134000709561957F4F8F4F9F4F9923A9F0F92F8B
:1013500096E9BB279395F695879577956795B79509
:10136000F111F8CFFAF4BB0F11F460FF1BC06F5FEF
:101370007F4F8F4F9F4F16C0882311F096E911C001
:10138000772321F09EE8872F762F05C0662371F022
:1013900096E8862F70E060E02AF09A95660F771F36
:1013A000881FDAF7880F9695879597F908952F92F9
:1013B0003F924F925F926F927F928F929F92AF92E5
:1013C000BF92CF92DF92EF92FF920F931F93CF9332
:1013D000DF93CDB7DEB7CA1BDB0B0FB6F894DEBFC9
:1013E0000FBECDBF09942A88398848885F846E84EF
:1013F0007D848C849B84AA84B984C884DF80EE8039
:10140000FD800C811B81AA81B981CE0FD11D0FB641
:10141000F894DEBF0FBECDBFED010895991B79E0B2
:1014200004C0991F961708F0961B881F7A95C9F774
:1014300080950895EE0FFF1F0590F491E02D09941B
:101440000F931F93CF93DF938230910510F482E0C6
:1014500090E0E0911802F091190220E030E0A0E065
:10146000B0E0309719F14081518102811381481712
:101470005907C8F08417950769F4109731F0129650
:101480000C93129713961C9327C000931802109385
:10149000190222C02115310519F04217530718F41B
:1014A0009A01BD01EF01DF01F801DBCF2115310504
:1014B000F9F0281B390B2430310580F48A819B8197
:1014C0006115710521F0FB019383828304C0909321
:1014D000190280931802FE01329644C0FE01E20F09
:1014E000F31F8193919322503109398328833AC0A5
:1014F0002091160230911702232B41F42091020112
:1015000030910301309317022093160220910001BD
:10151000309101012115310541F42DB73EB74091BD
:10152000040150910501241B350BE0911602F09146
:101530001702E217F307A0F42E1B3F0B28173907F9
:1015400078F0AC014E5F5F4F2417350748F04E0F1F
:101550005F1F50931702409316028193919302C02C
:10156000E0E0F0E0CF01DF91CF911F910F9108955E
:10157000CF93DF93009709F481C0FC013297138267
:101580001282A0911802B0911902109781F4208163
:101590003181820F931F2091160230911702281774
:1015A000390751F5F0931702E093160267C0ED0179
:1015B00020E030E0CE17DF0740F44A815B819E01D6
:1015C00041155105F1F0EA01F5CFD383C283408183
:1015D0005181840F951FC817D90759F488819981C3
:1015E000840F951F0296918380838A819B819383C8
:1015F00082832115310529F4F0931902E093180232
:101600003DC0E901FB83EA8349915991C40FD51F7D
:10161000EC17FD0761F480819181840F951F02967C
:10162000E90199838883828193819B838A83E0E0A7
:10163000F0E012968D919C911397009719F0FD019F
:10164000DC01F7CF8D919C9111979D012E5F3F4F4B
:10165000820F931F20911602309117022817390725
:1016600069F4309729F4109219021092180202C0FE
:1016700013821282B0931702A0931602DF91CF91CA
:101680000895A0E0B0E0E7E4FBE00C94DB09EC0196
:10169000009721F4CB010E94200AB4C0FC01E60FA0
:1016A000F71F9C0122503109E217F30708F4A8C084
:1016B000D9010D911C91119706171707B0F005304D
:1016C000110508F49BC0C80104978617970708F412
:1016D00095C002501109061B170B019311936D93CE
:1016E0007C93CF010E94B80A89C05B01A01AB10A9D
:1016F0004C01800E911EA0911802B0911902612C2C
:10170000712CE12CF12C109709F446C08D919C911D
:101710001197A815B905B1F56C0142E0C40ED11CB2
:10172000CA14DB0478F14C018A189B08640142E07A
:10173000C40ED11C1296BC9012971396AC91B5E0D2
:10174000CB16D10440F0B282A38391828082D9016A
:101750006D937C9309C00E5F1F4F800F911FF9019D
:1017600091838083EB2DFA2FE114F10431F0D7013E
:101770001396FC93EE93129741C0F0931902E093F5
:1017800018023CC06816790608F43C017D011296E7
:101790000D90BC91A02DB7CF8091160290911702A9
:1017A00088169906E1F466167706C8F48091000160
:1017B00090910101009741F48DB79EB740910401CB
:1017C00050910501841B950BE817F907C8F4F093B5
:1017D0001702E0931602F901718360830FC0CB01F9
:1017E0000E94200A7C01009759F0A801BE010E94C6
:1017F0000C0CCE010E94B80AC70104C0CE0102C081
:1018000080E090E0CDB7DEB7EEE00C94F70981E020
:1018100090E0F8940C942B0CFB01DC0102C00190C9
:101820000D9241505040D8F70895FB01DC01019022
:101830000D920020E1F70895FB01DC01415050407A
:1018400048F001900D920020C9F701C01D9241504F
:0A1850005040E0F70895F894FFCF30
:10185A0000001A028000000000001E028701B50184
:10186A006B02E601C401D8013B00536F6E69646FD5
:10187A00004C757A0054656D706572617475726199
:10188A000050756572746F20420050756572746FEE
:04189A0020440000E6
:107E0000112484B714BE81FFF0D085E080938100F7
:107E100082E08093C00088E18093C10086E0809377
:107E2000C20080E18093C4008EE0C9D0259A86E02C
:107E300020E33CEF91E0309385002093840096BBD3
:107E4000B09BFECF1D9AA8958150A9F7CC24DD24C4
:107E500088248394B5E0AB2EA1E19A2EF3E0BF2EE7
:107E6000A2D0813461F49FD0082FAFD0023811F036
:107E7000013811F484E001C083E08DD089C08234E0
:107E800011F484E103C0853419F485E0A6D080C0E4
:107E9000853579F488D0E82EFF2485D0082F10E0AE
:107EA000102F00270E291F29000F111F8ED06801E7
:107EB0006FC0863521F484E090D080E0DECF843638
:107EC00009F040C070D06FD0082F6DD080E0C81688
:107ED00080E7D80618F4F601B7BEE895C0E0D1E017
:107EE00062D089930C17E1F7F0E0CF16F0E7DF06D8
:107EF00018F0F601B7BEE89568D007B600FCFDCFD4
:107F0000A601A0E0B1E02C9130E011968C91119780
:107F100090E0982F8827822B932B1296FA010C0160
:107F200087BEE89511244E5F5F4FF1E0A038BF0790
:107F300051F7F601A7BEE89507B600FCFDCF97BE46
:107F4000E89526C08437B1F42ED02DD0F82E2BD052
:107F50003CD0F601EF2C8F010F5F1F4F84911BD097
:107F6000EA94F801C1F70894C11CD11CFA94CF0C13
:107F7000D11C0EC0853739F428D08EE10CD085E9AC
:107F80000AD08FE07ACF813511F488E018D01DD067
:107F900080E101D065CF982F8091C00085FFFCCF94
:107FA0009093C60008958091C00087FFFCCF809118
:107FB000C00084FD01C0A8958091C6000895E0E648
:107FC000F0E098E1908380830895EDDF803219F02E
:107FD00088E0F5DFFFCF84E1DECF1F93182FE3DFCA
:107FE0001150E9F7F2DF1F91089580E0E8DFEE27F6
:047FF000FF270994CA
:027FFE00040479
:0400000300007E007B
:00000001FF
