:100000000C945D000C9485000C9485000C94850084
:100010000C9485000C9485000C9485000C9485004C
:100020000C9485000C9485000C9485000C944F0171
:100030000C9485000C9485000C9485000C9485002C
:100040000C9405010C9485000C9485000C9485009B
:100050000C9485000C9485000C9485000C9485000C
:100060000C9485000C94850000000008000201003B
:100070000003040700000000000000000000000072
:10008000250028002B0000000000240027002A0083
:10009000040404040404040402020202020203032E
:1000A0000303030301020408102040800102040836
:1000B0001020010204081020280311241FBECFEFD6
:1000C000D8E0DEBFCDBF11E0A0E0B1E0E6EEF6E0A3
:1000D00002C005900D92A030B107D9F721E0A0E051
:1000E000B1E001C01D92A533B207E1F710E0CDE504
:1000F000D0E004C02197FE010E946B03CC35D107EC
:10010000C9F70E9410020C9471030C94000090E057
:10011000FC01EC55FF4F2491FC01E057FF4F849107
:10012000882399F090E0880F991FFC01EA57FF4F50
:10013000A591B491FC01E458FF4F859194918FB73C
:10014000F894EC91E22BEC938FBF089590E0FC01C2
:10015000E859FF4F2491FC01EC55FF4F3491FC010D
:10016000E057FF4FE491EE2309F43CC0222339F11C
:10017000233091F038F42130A9F0223001F584B514
:100180008F7D12C0273091F02830A1F02430B9F4CF
:10019000809180008F7D03C0809180008F77809355
:1001A00080000DC084B58F7784BD09C08091B000F8
:1001B0008F7703C08091B0008F7D8093B000F0E016
:1001C000EE0FFF1FE458FF4FA591B4919FB7F8942D
:1001D000611104C08C913095382302C0EC913E2B04
:1001E0003C939FBF0895892B79F41092800082E0A0
:1001F000809381001092850010928400B19A8091C2
:100200006F00826080936F0008951F920F920FB667
:100210000F9211242F933F938F939F93AF93BF938C
:100220008091310190913201A0913301B09134015C
:100230003091300123E0230F2D3720F40196A11DCA
:10024000B11D05C026E8230F0296A11DB11D209304
:1002500030018093310190933201A0933301B09328
:10026000340180912C0190912D01A0912E01B0912B
:100270002F010196A11DB11D80932C0190932D019A
:10028000A0932E01B0932F01BF91AF919F918F91B9
:100290003F912F910F900FBE0F901F9018951F92B6
:1002A0000F920FB60F9211242F933F934F935F93AA
:1002B0006F937F938F939F93AF93BF93EF93FF932E
:1002C0008091010187FF05C0109285001092840083
:1002D0001BC020910101022E000C330B8091000104
:1002E00090E02817390784F480910101082E000C52
:1002F000990BFC01EE0FFF1F8E0F9F1FFC01EE5F9D
:10030000FE4F808186FD15C0809101018F5F809333
:10031000010120910101022E000C330B809100019C
:1003200090E028173907C4F4809101018C3064F102
:1003300013C080910101082E000C990BFC01EE0FF7
:10034000FF1F8E0F9F1FFC01EE5FFE4F808160E05C
:100350008F730E94A600D8CF809184009091850071
:10036000049680349C4918F480E49CE905C080918F
:100370008400909185000496909389008093880072
:100380008FEF809301013BC0209184003091850064
:1003900080910101082E000C990BFC01EE0FFF1F4C
:1003A0008E0F9F1FFC01EE5FFE4F81819281820FB5
:1003B000931F909389008093880080910101082EFB
:1003C000000C990BFC01EE0FFF1F8E0F9F1FFC010D
:1003D000EE5FFE4F808186FF12C080910101082EE2
:1003E000000C990BFC01EE0FFF1F8E0F9F1FFC01ED
:1003F000EE5FFE4F808161E08F730E94A600FF9147
:10040000EF91BF91AF919F918F917F916F915F918C
:100410004F913F912F910F900FBE0F901F90189505
:10042000789484B5826084BD84B5816084BD85B5CF
:10043000826085BD85B5816085BD80916E008160DB
:1004400080936E0010928100809181008260809381
:100450008100809181008160809381008091800083
:100460008160809380008091B10084608093B100AE
:100470008091B00081608093B00080917A008460A8
:1004800080937A0080917A00826080937A008091D4
:100490007A00816080937A0080917A0080688093EE
:1004A0007A001092C10084E00E94870085E00E94DB
:1004B000870086E00E9487008DE00E94870080917F
:1004C00029018C3008F042C08CE00E9487008091A6
:1004D0002901E82FF0E09F01220F331FE20FF31FE5
:1004E000EE5FFE4F9081907C9C60908310922A0179
:1004F00010922B016CE00E945F0390E02CE0829F41
:10050000B001112440E050E09B01240F351FF90198
:10051000EE0FFF1F2E0F3F1FF901EE5FFE4F2081F0
:1005200026FD07C04F5F5F4F4C30510569F70E94B1
:10053000F300E0912901F0E0CF01880F991FE80F47
:10054000F91FEE5FFE4F80818064808380912601D9
:100550008C3008F042C08BE00E9487008091260119
:10056000E82FF0E09F01220F331FE20FF31FEE5F31
:10057000FE4F9081907C9B60908310922701109297
:1005800028016CE00E945F0390E02CE0829FB001A4
:10059000112440E050E09B01240F351FF901EE0FBC
:1005A000FF1F2E0F3F1FF901EE5FFE4F208126FD3A
:1005B00007C04F5F5F4F4C30510569F70E94F30051
:1005C000E0912601F0E0CF01880F991FE80FF91F95
:1005D000EE5FFE4F808180648083C0E0D0E010E455
:1005E00010937C0080917A00806480937A008091DF
:1005F0007A0086FDFCCF809178002091790090E010
:10060000922B893E23E0920734F061E084E00E945F
:10061000A60060E008C060E0853691054CF084E0FB
:100620000E94A60061E085E00E94A60060E008C08C
:1006300084E00E94A60060E085E00E94A60061E0E0
:1006400086E00E94A600209759F20E940000C8CFC1
:10065000809100018C30A0F491E0980F90930001FC
:100660008093290190E0FC01EE0FFF1F8E0F9F1F6A
:10067000FC01EE5FFE4F88EB9BE09283818303C019
:100680008FEF80932901809100018C30A0F491E0DC
:10069000980F909300018093260190E0FC01EE0FEB
:1006A000FF1F8E0F9F1FFC01EE5FFE4F88EB9BE04C
:1006B0009283818308958FEF809326010895991B7B
:1006C00079E004C0991F961708F0961B881F7A9549
:1006D000C9F780950895EE0FFF1F0590F491E02D66
:0606E0000994F894FFCF1D
:107E0000112484B714BE81FFF0D085E080938100F7
:107E100082E08093C00088E18093C10086E0809377
:107E2000C20080E18093C4008EE0C9D0259A86E02C
:107E300020E33CEF91E0309385002093840096BBD3
:107E4000B09BFECF1D9AA8958150A9F7CC24DD24C4
:107E500088248394B5E0AB2EA1E19A2EF3E0BF2EE7
:107E6000A2D0813461F49FD0082FAFD0023811F036
:107E7000013811F484E001C083E08DD089C08234E0
:107E800011F484E103C0853419F485E0A6D080C0E4
:107E9000853579F488D0E82EFF2485D0082F10E0AE
:107EA000102F00270E291F29000F111F8ED06801E7
:107EB0006FC0863521F484E090D080E0DECF843638
:107EC00009F040C070D06FD0082F6DD080E0C81688
:107ED00080E7D80618F4F601B7BEE895C0E0D1E017
:107EE00062D089930C17E1F7F0E0CF16F0E7DF06D8
:107EF00018F0F601B7BEE89568D007B600FCFDCFD4
:107F0000A601A0E0B1E02C9130E011968C91119780
:107F100090E0982F8827822B932B1296FA010C0160
:107F200087BEE89511244E5F5F4FF1E0A038BF0790
:107F300051F7F601A7BEE89507B600FCFDCF97BE46
:107F4000E89526C08437B1F42ED02DD0F82E2BD052
:107F50003CD0F601EF2C8F010F5F1F4F84911BD097
:107F6000EA94F801C1F70894C11CD11CFA94CF0C13
:107F7000D11C0EC0853739F428D08EE10CD085E9AC
:107F80000AD08FE07ACF813511F488E018D01DD067
:107F900080E101D065CF982F8091C00085FFFCCF94
:107FA0009093C60008958091C00087FFFCCF809118
:107FB000C00084FD01C0A8958091C6000895E0E648
:107FC000F0E098E1908380830895EDDF803219F02E
:107FD00088E0F5DFFFCF84E1DECF1F93182FE3DFCA
:107FE0001150E9F7F2DF1F91089580E0E8DFEE27F6
:047FF000FF270994CA
:027FFE00040479
:0400000300007E007B
:00000001FF
